:020000040800F2
:1000000000200020090500085905000859050008CE
:1000100000000000000000000000000000000000E0
:10002000000000000000000000000000590500086A
:1000300000000000000000005905000859050008F4
:10004000590500080000000059050008590500087E
:100050005905000859050008590500085905000808
:10006000000000005905000859050008590500085E
:10007000590500085905000859050008000000004E
:10008000590500085905000800000000590500083E
:1000900059050008590500085905000859050008C8
:1000A000590500085905000859050008CD04000845
:1000B00059050008000000000000000000000000DA
:1000C00010B5064C2378002B07D1054B002B02D02E
:1000D000044800E000BF0123237010BD0000002091
:1000E000000000002C060008044B10B5002B03D0C4
:1000F0000349044800E000BF10BDC04600000000F6
:10010000040000202C06000880B582B000AF020079
:10011000FB1D1A70064BFA1D127811001F220A40AF
:10012000012191400A001A60C046BD4602B080BD60
:1001300000E100E080B582B000AF786039607A6895
:100140009023DB059A4207D1474B474A52698021E9
:1001500089020A435A612EE07B68444A934207D1E0
:10016000414B414A52698021C9020A435A6122E047
:100170007B683F4A934207D13B4B3B4A52698021FF
:1001800009030A435A6116E07B683A4A934207D151
:10019000354B354A5269802149030A435A610AE0C6
:1001A0007B68354A934206D12F4B2F4A52698021F2
:1001B000C9030A435A617B681B683A6852000132DE
:1001C000012191400A001A437B681A607B681B6812
:1001D0003A685200012191400A00D2431A407B68DC
:1001E0001A607B685B6801213A6891400A001A43F3
:1001F0007B685A607B689B683A6852000121914095
:100200000A00D2431A407B689A607B68DB68012150
:100210003A6891400A00D2431A407B68DA603B6832
:10022000072B12DD7B685A6A3B6814490B4004D5E2
:10023000013B082149420B4301339B0001219940B6
:100240000B001A437B685A6209E07B681B6A3A68B4
:100250009200012191400A001A437B681A62C0464D
:10026000BD4602B080BDC0460010024000040048F8
:1002700000080048000C00480014004807000080F7
:1002800080B582B000AF78609023DB0509211800AB
:10029000FFF750FF9023DB050A211800FFF74AFF04
:1002A0007B68114A934207D1104B104A9269802112
:1002B000C9010A439A610AE07B680D4A934206D15C
:1002C0000A4B0A4AD269802189020A43DA617B68B3
:1002D000084ADA607B681B6825221A437B681A602B
:1002E000C046BD4602B080BD00380140001002404B
:1002F000004400404103000080B582B000AF786048
:10030000204B08211800FFF715FF1E4B092118008C
:10031000FFF710FF7B681C4A934207D11B4B1B4A17
:10032000D269802189030A43DA610AE07B68184AAE
:10033000934206D1154B154AD2698021C9030A435D
:10034000DA61114B134A1A610F4B0F4A12680121EF
:100350000A431A600C4B0C4A526808210A435A603F
:10036000094B094A52680C490A405A60064B064A32
:1003700052688021C9020A435A60C046BD4602B095
:1003800080BDC046000400480054004000100240F8
:10039000005800402B1D2000FFFBFFFF80B500AF81
:1003A000084B084A5268802189010A435A60C046B6
:1003B000044B5A6880239B011340F9D1C046BD46C7
:1003C00080BDC0460054004080B500AF084B084ACD
:1003D00052688021C9010A435A60C046044B5A68DA
:1003E0008023DB011340F9D1C046BD4680BDC04625
:1003F0000054004080B582B000AF0200FB1D1A70AF
:10040000064BFA1D12789A62C046044B9B69012282
:100410001340FAD0C046BD4602B080BD0054004033
:1004200080B584B000AF78603960FFF7B7FF002374
:10043000FB6009E0FB687A68D3181B781800FFF7A7
:10044000D9FFFB680133FB60FA683B689A42F1DB35
:10045000FFF7BAFFC046BD4604B080BD80B584B08A
:1004600000AF78600023FB6002E0FB680133FB60B3
:10047000FA687B689A42F8DBC046BD4604B080BD8E
:1004800080B500AF1B20FFF73FFE0C4B1800FFF7B5
:10049000F7FE0B4B1800FFF72FFF0A4B1B68032BCF
:1004A00007DD094B04211800FFF7BAFF054B0022B6
:1004B0001A606420FFF7D2FFEFE7C0460038014022
:1004C00000540040200000201C00002080B500AF38
:1004D0000A4BDB6920221340202B0CD1084B1B68F0
:1004E000064A928C92B2D1B2064AD154044B1B6890
:1004F0005A1C034B1A60C046BD4680BD00380140FF
:10050000200000201C0000200D488546002103E04B
:100510000C4B5B58435004310B480C4B42189A4229
:10052000F6D30B4A02E0002313600432094B9A42CF
:10053000F9D300F013F800F055F8FFF7A1FFFEE73C
:10054000002000204C0600080000002000000020D1
:100550000000002024000020FEE7000080B500AF6E
:100560001A4B1A4A126801210A431A60174B174A9C
:10057000526817490A405A60144B144A12681549C8
:100580000A401A60114B114A126813490A401A6056
:100590000E4B0E4A526811490A405A600B4B0B4AE7
:1005A000D26A0F218A43DA62084B084A126B0C495F
:1005B0000A401A63054B054A526B01218A435A636C
:1005C000024B00229A60C046BD4680BD001002402A
:1005D0000CB8FF08FFFFF6FEFFFFFBFFFFFFC0FFA9
:1005E000ECFEFFFF70B500260C4D0D4C641BA410F3
:1005F000A64209D1002600F019F80A4D0A4C641BE6
:10060000A410A64205D170BDB300EB58984701363F
:10061000EEE7B300EB5898470136F2E744060008CE
:10062000440600084406000848060008F8B5C0461D
:10063000F8BC08BC9E467047F8B5C046F8BC08BC7C
:040640009E4670471B
:04064400E9000008C1
:04064800C1000008E5
:0400000508000509E1
:00000001FF
